:060000000A128A110C280F
:10000800FE00030EF1000A08F2000A128A111328F2
:100018000A128A110F2883010A128A1141288B13A8
:100028000B1C17281828392883120313861E1D282D
:100038001E2829280130F000700887070A300706B3
:10004800031D2728282829288701061F2C282D2842
:10005800332801308702FF30870009308700861F68
:1000680036283728382887010B108B1372088A0026
:10007800710E8300FE0E7E0E0900FF3083160313F7
:10008800860087018312031387018B150B108B17CA
:080098004C280A128A110C2801
:08400000FF3FFF3FFF3FFF3FC0
:02400E00FF3F72
:00000001FF
