:060000000A128A11FC2F18
:10001200F6007603031D0E280F282C2874087F3E55
:10002200F9007908F50004300310F50CFF3E031DBA
:1000320015287508F70079080F39F80077080A16AD
:100042008A15DD260A128A1178080A168A15DD2613
:100052000A128A114E2802307606031D31283228F0
:100062004E287408BF3EF9007908F50004300310E9
:10007200F50CFF3E031D38287508F70079080F3983
:10008200F80077080A168A15DD260A128A117808FE
:100092000A168A15DD260A128A1108008312031332
:1000A200D1006E305102031C5728582865293F3071
:1000B200A7000030A6000030A5000030A400643084
:1000C200F6000030F7005108C200C3014208F800F0
:1000D2004308F9000A168A11F6200A128A117608D4
:1000E20083120313C40001300310C40DFF3E031D2D
:1000F20075280310440D7D3E84000A168A110A20D9
:100102000A128A11C5000A168A110A200A128A11D5
:10011200C6000A168A110A200A128A11C7000A1694
:100122008A110A200A128A11C8004808AB0047083F
:10013200AA004608A9004508A8000A128A155C21EF
:100142000A128A11831203132708D0002608CF004F
:100152002508CE002408CD000A30F6000030F70052
:100162005108C200C3014208F2004308F3006430A0
:10017200F0000030F1000A168A11BC200A128A111E
:100182007108F9007008F8000A168A11F6200A129E
:100192008A11760883120313C40001300310C40DC0
:1001A200FF3E031DCF280310440D593E84000A165A
:1001B2008A110A200A128A11C5000A168A110A2017
:1001C2000A128A11C6000A168A110A200A128A1114
:1001D200C7000A168A110A200A128A11C8004808A2
:1001E200A7004708A6004608A5004508A400500835
:1001F200AB004F08AA004E08A9004D08A8000A1239
:100202008A155C210A128A11831203132708CC0073
:100212002608CB002508CA002408C9000A30F000CD
:100222000030F1005108C200C3014208F200430845
:10023200F3000A168A11BC200A128A11700883126E
:100242000313C40001300310C40DFF3E031D242913
:100252000310440D353E84000A168A110A200A1240
:100262008A11C5000A168A110A200A128A11C600CA
:100272000A168A110A200A128A11C7000A168A115E
:100282000A200A128A11C8004808A7004708A600D7
:100292004608A5004508A4004C08AB004B08AA007C
:1002A2004A08A9004908A8000A128A155C210A1204
:1002B2008A11831203132708C1002608C0002508EB
:1002C200BF002408BE00592A0B305102031C6A29C0
:1002D2006B29162A3F30A7000030A6000030A50087
:1002E2000030A4000A30F6000030F7005108C200C6
:1002F200C3014208F8004308F9000A168A11F620E1
:100302000A128A11760883120313C4000130031003
:10031200C40DFF3E031D88290310440D593E84007D
:100322000A168A110A200A128A11C5000A168A11AF
:100332000A200A128A11C6000A168A110A200A1213
:100342008A11C7000A168A110A200A128A11C800E5
:100352004808AB004708AA004608A9004508A800BB
:100362000A128A155C210A128A11831203132708C2
:10037200D0002608CF002508CE002408CD000A3080
:10038200F0000030F1005108C200C3014208F2003F
:100392004308F3000A168A11BC200A128A11700857
:1003A20083120313C40001300310C40DFF3E031D6A
:1003B200D5290310440D353E84000A168A110A20FD
:1003C2000A128A11C5000A168A110A200A128A1113
:1003D200C6000A168A110A200A128A11C7000A16D2
:1003E2008A110A200A128A11C8004808A700470881
:1003F200A6004608A5004508A4005008AB004F0817
:10040200AA004E08A9004D08A8000A128A155C210C
:100412000A128A11831203132708C1002608C0009A
:100422002508BF002408BE00592A3F30A70000302B
:10043200A6000030A5000030A4005108C20001301F
:100442000310C20DFF3E031D212A0310420D353E4B
:1004520084000A168A110A200A128A11C3000A1697
:100462008A110A200A128A11C4000A168A110A2065
:100472000A128A11C5000A168A110A200A128A1162
:10048200C6004608AB004508AA004408A900430874
:10049200A8000A128A155C210A128A118312031318
:1004A2002708C1002608C0002508BF002408BE0096
:1004B200080083160313BD00A130AE00E72F2530DC
:1004C20042060319652A662A702A3D0884004208FA
:1004D200831380000130A5002508BD07E72FAF0177
:1004E200B001752A30158F2A0130A007FF3020078E
:1004F20084000A168A110A200A128A11C200A50073
:10050200A6012608003A0319872AE72F2508003A90
:100512000319F72F663A0319732AE72F00302F05C4
:10052200A50007303005A6002508260403199A2ADB
:100532009B2AD52F0630B1000030B2002E0884006D
:1005420083130008BE00840A0008BF00840A000862
:10055200C000840A0008C1000430A5002508AE07C7
:100562004108F3004008F2003F08F1003E08F000A5
:100572000030F7000030F6000030F5000030F400E3
:100582000A128A1502200A128A110318C92ACA2AD3
:10059200E72A831603134108F3004008F2003F08DC
:1005A200F1003E08F0000A168A15C5260A128A11C1
:1005B200730883160313C1007208C0007108BF00DC
:1005C2007008BE000330AF040030B004831603137A
:1005D200B701B8014108F3004008F2003F08F100FA
:1005E2003E08F0000030F7000030F6000030F50061
:1005F2000030F4000A168A113A210A128A110318ED
:10060200032B042BF42B031083160313400D410D0F
:10061200823EB700FF3003180030B800FF30B70742
:100622000318B80AFF30B8070330F0000030F100B9
:100632003808F3003708F2000A168A153D270A1215
:100642008A11710883160313B8007008B7000A30C4
:10065200F7000030F8003808FA003708F9000A16E7
:100662008A1158230A128A11780883160313B800D4
:100672007708B700B81F3E2B3F2B452BFF30B7073B
:100682000318B80AFF30B8073703FF3A0A128A156F
:10069200A1240A128A118312031341088316031339
:1006A200BC0083120313400883160313BB0083129A
:1006B20003133F0883160313BA00831203133E0881
:1006C20083160313B900410883120313A70083168C
:1006D2000313400883120313A600831603133F0873
:1006E20083120313A500831603133E088312031318
:1006F200A400831603133C0883120313AB00831672
:1007020003133B0883120313AA00831603133A0848
:1007120083120313A90083160313390883120313E8
:10072200A8000A128A155C210A128A118312031385
:10073200270883160313BC008312031326088316AB
:100742000313BB0083120313250883160313BA0095
:1007520083120313240883160313B9003C08F30021
:100762003B08F2003A08F1003908F0003F30F70088
:100772008030F6000030F5000030F4000A128A15CD
:1007820002200A128A110318C72BC82BD12BFF3063
:1007920083160313B7070318B80AFF30B807F42B00
:1007A200831603133C08F3003B08F2003A08F100F9
:1007B2003908F0004130F7002030F6000030F50033
:1007C2000030F4000A128A1502200A128A11031C50
:1007D200EB2BEC2BF42B013083160313B707031812
:1007E200B80A0030B80706300A128A114F200A12DE
:1007F2008A11831203134108D5004008D4003F0830
:10080200D3003E08D2008316031341088312031358
:10081200D90083160313400883120313D8008316EA
:1008220003133F0883120313D700831603133E08F2
:1008320083120313D6000A168A11A8250A128A11F6
:1008420083120313550883160313C1008312031383
:10085200540883160313C00083120313530883162C
:100862000313BF0083120313520883160313BE003F
:100872003808803AFF0080307F02031D422C0A3084
:1008820037020318452C462C972C83160313410874
:10089200F3004008F2003F08F1003E08F00000308B
:1008A200F7000030F6000030F5000030F4000A16C0
:1008B2008A113A210A128A110318602C612C092D1F
:1008C20083160313410883120313D4008316031300
:1008D200400883120313D300831603133F088312C5
:1008E2000313D200831603133E0883120313D100AD
:1008F2000A168A11C1230A128A1183120313540899
:10090200530452045104031D872C882C092D83168D
:1009120003133808803AFF0080307F02031D932CB6
:1009220002303702031C962C972C092D83160313D1
:100932003C08F3003B08F2003A08F1003908F000E5
:100942004030F7008930F6007030F5005F30F40077
:100952000A128A1502200A128A110318B12CB22C2B
:10096200BB2CF73083160313B7070318B80AFF30FE
:10097200B807C32CF83083160313B7070318B80A55
:10098200FF30B80737080A128A15A1240A128A1101
:1009920083120313410883160313BC00831203134B
:1009A200400883160313BB00831203133F08831608
:1009B2000313BA00831203133E0883160313B9000C
:1009C2004108F3004008F2003F08F1003E08F00041
:1009D2003C08F7003B08F6003A08F5003908F40035
:1009E2000A128A15A4200A128A11730883160313A5
:1009F200B6007208B5007108B4007008B300003088
:100A0200C1000030C0000030BF000030BE008D2D9C
:100A120083160313410883120313D40083160313AE
:100A2200400883120313D300831603133F08831273
:100A32000313D200831603133E0883120313D1005B
:100A42000A168A11C1230A128A1183120313540847
:100A520083160313B600831203135308831603137A
:100A6200B50083120313520883160313B4008312D2
:100A72000313510883160313B3003608F300350835
:100A8200F2003408F1003308F00000300A168A112F
:100A9200F0240A128A11730883120313E900720800
:100AA200E8007108E7007008E600831603134108A6
:100AB20083120313ED0083160313400883120313FA
:100AC200EC00831603133F0883120313EB00831613
:100AD20003133E0883120313EA000A168A15192724
:100AE2000A128A1183120313690883160313C100C1
:100AF20083120313680883160313C00083120313BF
:100B0200670883160313BF00831203136608831654
:100B12000313BE00B701B801C201C20A4208A50010
:100B220001300310A50DFF3E031D922D0310250D6C
:100B3200693E84000A168A110A200A128A11A60046
:100B42000A168A110A200A128A11A7000A168A11A5
:100B52000A200A128A11A8000A168A110A200A1209
:100B62008A11A90029083602031DC12D2808350261
:100B7200031DC12D27083402031DC12D260833028F
:100B82000318C42DC52DC62DD02D0130A500250872
:100B9200C2070A304206031DCF2DD02D8F2D033000
:100BA2002F05A50000303005A600250826040319EC
:100BB200DB2DDC2D4A2E3D0884002D30831380006E
:100BC2000130A5002508BD074A2E4208A5000130C4
:100BD2000310A50DFF3E031DE92D0310250D693EEF
:100BE20084000A168A110A200A128A11F0000A16D3
:100BF2008A110A200A128A11F1000A168A110A20A1
:100C02000A128A11F2000A168A110A200A128A119D
:100C1200F3003608F7003508F6003408F50033080B
:100C2200F4000A168A11F2220A128A117308831634
:100C32000313BC007208BB007108BA007008B90047
:100C42000030F3000030F2000030F1000A30F00012
:100C52003C08F7003B08F6003A08F5003908F400B2
:100C62000A168A1188210A128A117308831603133D
:100C7200BC007208BB007108BA007008B9003D08D8
:100C820084003908303E831380000130A500250816
:100C9200BD070130C202420A031D502E512EE62D1D
:100CA200632E831603133D088400303083138000C3
:100CB2000130A5002508BD07FF30B7070318B80AA1
:100CC200FF30B8073808803AFF0080307F02031DEA
:100CD2006C2E0130370203186F2E702E522E83169F
:100CE20003133208803AFF0080307F02031D7B2EFF
:100CF20009303102031C7E2E7F2E842E083083168B
:100D02000313C200882E831603133108C20042085F
:100D1200A500A6012508B1022608031CB203B202EF
:100D220042080319952E962E9F2E3D0884002E30E0
:100D3200831380000130A5002508BD0742080A126E
:100D42008A15A1240A128A118312031341088316F9
:100D52000313AD0083120313400883160313AC0080
:100D6200831203133F0883160313AB00831203138A
:100D72003E0883160313AA002D0883120313AB0047
:100D8200831603132C0883120313AA00831603137A
:100D92002B0883120313A900831603132A08831254
:100DA2000313A80083160313410883120313A70039
:100DB20083160313400883120313A600831603133A
:100DC2003F0883120313A500831603133E08831200
:100DD2000313A4000A128A155C210A128A118312D3
:100DE20003132708D4002608D3002508D2002408BC
:100DF200D1000A168A11C1230A128A11831203131F
:100E0200540883160313B600831203135308831680
:100E12000313B50083120313520883160313B4009D
:100E220083120313510883160313B300B72F42082A
:100E3200A50001300310A50DFF3E031D1B2F03105B
:100E4200250D693E84000A168A110A200A128A11A7
:100E5200F0000A168A110A200A128A11F1000A16F3
:100E62008A110A200A128A11F2000A168A110A202D
:100E72000A128A11F3003608F7003508F600340822
:100E8200F5003308F4000A168A11F2220A128A11B6
:100E9200730883160313BC007208BB007108BA0002
:100EA2007008B9000030F3000030F2000030F100A9
:100EB2000A30F0003C08F7003B08F6003A08F5005B
:100EC2003908F4000A168A1188210A128A11730855
:100ED20083160313BC007208BB007108BA007008C5
:100EE200B9003D0884003908303E83138000013088
:100EF200A5002508BD074208A50001300310A50D75
:100F0200FF3E031D7F2F0310250D693E84000A1644
:100F12008A110A200A128A11F0000A168A110A207E
:100F22000A128A11F1000A168A110A200A128A117B
:100F3200F2000A168A110A200A128A11F3003608F0
:100F4200F7003508F6003408F5003308F4000A16F5
:100F52008A1188210A128A11730883160313B600B4
:100F62007208B5007108B4007008B3000130C20203
:100F7200420A031DBD2FBE2F182FCE2F3D0884001D
:100F82003030831380000130A5002508BD07FF30F3
:100F9200B1070318B20AFF30B20731083204031D49
:100FA200D32FD42FBF2FE72F03302F05A5000030FA
:100FB2003005A600250826040319E02FE12FE72FAC
:100FC2003D0884002D30831380006B2A0130A00776
:100FD200FF30200784000A168A110A200A128A1199
:100FE200C2004208031DF62FF72F602A3D08840035
:0E0FF20083138001080083010A168A11922AD7
:1010040000307005F80000307105F9008030720579
:10101400FA007F307305FB007B087A0479047804B6
:10102400031D152816281E280030F3000030F20096
:101034000030F1000030F00000307405F80000309A
:101044007505F90080307605FA007F307705FB00DE
:101054007B087A0479047804031D312832283A285D
:101064000030F7000030F6000030F5000030F400E6
:10107400F31F3D283E2862280030F8000030F900B4
:101084000030FA008030FB007008F8027108031C7D
:10109400710F4D284E28F9027208031C720F532851
:1010A4005428FA027308031C730F59285A28FB02A8
:1010B4007B08F3007A08F2007908F1007808F00060
:1010C400F71F652866288A280030F8000030F900E8
:1010D4000030FA008030FB007408F8027508031C25
:1010E400750F75287628F9027608031C760F7B287D
:1010F4007C28FA027708031C770F81288228FB02D8
:101104007B08F7007A08F6007908F5007808F400FF
:101114008030F3068030F70677087302031D9C289D
:1011240076087202031D9C2875087102031D9C2811
:101134007408700203189F28A028A2280310A3286B
:10114400031408000310720D730D83120313A5001A
:101154002508031DAE28AF28B8280030F30000305E
:10116400F2000030F1000030F0005B290310760D2E
:10117400770DA4002408031DC028C128C228AF2865
:10118400F217FF30F005FF30F105FF30F2050030B3
:10119400F305F617FF30F405FF30F505FF30F605CB
:1011A4000030F7050030A3000030A2000030A10099
:1011B4000030A0007F30A502A0302407F800780892
:1011C400A5022030A4000130F8000310A00DA10DE9
:1011D400A20DA30DF80BE72877087302031DFC2862
:1011E40076087202031DFC2875087102031DFC2891
:1011F40074087002031CFF2800290F297408F002E8
:101204007508031C750FF1027608031C760FF202B1
:101214007708031C770FF30220140130F800031041
:10122400F00DF10DF20DF30DF80B11290130A402AC
:10123400031D1D291E29E528A51F212922293C2932
:101244002508803A9F3E0318282929292A29AF28EE
:1012540001300310A30CA20CA10CA00CFF3E031D33
:101264002B290130F8007808A507031D3A293B29EA
:101274002A29532920302502031C412942294E29B9
:10128400AF280130F8000310A00DA10DA20DA30D8D
:10129400F80B45290130A5022508031D52295329BD
:1012A40043292308F3002208F2002108F100200852
:1012B400F00008008312031327088039B1002708BF
:1012C400AC002C07B700A61F682969296A293714BE
:1012D400370803196E296F297E29370A031D7329DC
:1012E40074297C290030A7000030A6000030A50036
:1012F4000030A400A61786290030A7000030A600FD
:101304000030A5000030A4002B088039AC002C0864
:10131400B1062B08AC002C07B600AA1F922993290A
:10132400942936143608031998299929A829360AC4
:10133400031D9D299E29A6290030AB000030AA0078
:101344000030A9000030A800AA17B0290030AB0073
:101354000030AA000030A9000030A80036080319A4
:10136400B429B529BA293708031DB929BA29C329CB
:101374000030A7000030A6000030A5000030A40013
:10138400A02C2408F0002A080A168A1562270A12DB
:101394008A15710883120313BD007008BC003C0851
:1013A400AC00AD01AE01AF012F08B5002E08B400AA
:1013B4002D08B3002C08B2003D08AC00AD01AE010D
:1013C400AF012F08BB002E08BA002D08B9002C0865
:1013D400B8002508F00029080A168A1562270A129F
:1013E4008A15710883120313BD007008BC003C0801
:1013F400AC00AD01AE01AF012C08B2072D080311FA
:101404000318013E0319072AB3072E080311031812
:10141400013E03190E2AB4072F0803110318013ED5
:101424000319152AB5073D08AC00AD01AE01AF01A3
:101434002C08B8072D0803110318013E0319232AA9
:10144400B9072E0803110318013E03192A2ABA0703
:101454002F0803110318013E0319312ABB0726087C
:10146400F00028080A168A1562270A128A157108DC
:1014740083120313BD007008BC003C08AC00AD012E
:10148400AE01AF012C08B2072D0803110318013E69
:1014940003194D2AB3072E0803110318013E03193B
:1014A400542AB4072F0803110318013E03195B2AB9
:1014B400B5073D08AC00AD01AE01AF012C08B8077B
:1014C4002D0803110318013E0319692AB9072E08D0
:1014D40003110318013E0319702ABA072F080311D8
:1014E4000318013E0319772ABB070830AC00031028
:1014F400B20DB30DB40DB50DAC0B792A2508F0006F
:1015040028080A168A1562270A128A157108831296
:101514000313BD007008BC003C08AC003D08AD00DE
:10152400AE01AF012C08B2072D0803110318013EC8
:1015340003199D2AB3072E0803110318013E03194A
:10154400A42AB4072F0803110318013E0319AB2A78
:10155400B5072408F00029080A168A1562270A121A
:101564008A15710883120313BD007008BC003C087F
:10157400AC003D08AD00AE01AF012C08B2072D0848
:1015840003110318013E0319C82AB3072E080311D7
:101594000318013E0319CF2AB4072F0803110318B7
:1015A400013E0319D62AB5070830AC000310B20D6A
:1015B400B30DB40DB50DAC0BD82A2408F0002808DF
:1015C4000A168A1562270A128A15710883120313F0
:1015D400BD007008BC003C08AC003D08AD00AE0185
:1015E400AF012C08B2072D0803110318013E03199B
:1015F400FC2AB3072E0803110318013E0319032B19
:10160400B4072F0803110318013E03190A2BB50769
:101614002508F0002A080A168A1562270A128A1574
:10162400710883120313BD007008BC003C08AC00B1
:101634003D08AD00AE01AF012C08B8072D08031119
:101644000318013E0319272BB9072E0803110318A9
:10165400013E03192E2BBA072F0803110318013E6C
:101664000319352BBB072608F00029080A168A152A
:1016740062270A128A15710883120313BD007008C9
:10168400BC003C08AC003D08AD00AE01AF012C0825
:10169400B8072D0803110318013E0319522BB9078B
:1016A4002E0803110318013E0319592BBA072F08FA
:1016B40003110318013E0319602BBB072608F00031
:1016C4002A080A168A1562270A128A1571088312D3
:1016D4000313BD007008BC003C08AC003D08AD001D
:1016E400AE01AF0108300310AC0DAD0DAE0DAF0D62
:1016F400FF3E031D752B2C08B8072D080311031892
:10170400013E0319862BB9072E0803110318013E65
:1017140003198D2BBA072F0803110318013E03196F
:10172400942BBB073208AC003308AD003408AE007C
:101734003508AF0018300310AF0CAE0CAD0CAC0C78
:10174400FF3E031D9D2B2C08B8072D080311031819
:10175400013E0319AE2BB9072E0803110318013EED
:101764000319B52BBA072F0803110318013E0319F7
:10177400BC2BBB070830AC000310B20DB30DB40D85
:10178400B50DAC0BBE2B37083607AC00AD01AD0D63
:101794002C08823EBC002D080318013EFF3EBD000C
:1017A400F02B0130AC000310B80DB90DBA0DBB0D10
:1017B400AC0BD52BB51FDF2BE02BE12B38140130FC
:1017C400AC000310B20DB30DB40DB50DAC0BE32B8F
:1017D400FF30BC070318BD0AFF30BD07BA1FF32B47
:1017E400F42BD32BB601B51FF82BF92B152CFF3096
:1017F4003205AC00FF303305AD00FF303405AE00D8
:101804007F303505AF002F082E042D042C04031956
:101814000C2C0D2C102CB601B60A152C381C132CCC
:10182400142C152C0D2C36080319192C1A2C4B2C9E
:101834000130B807003003180130B907003003182D
:101844000130BA07003003180130BB073B1C2B2CB6
:101854002C2C4B2C3808AC003908AD003A08AE00EB
:101864003B08AF000130B0002F0DAF0CAE0CAD0C37
:10187400AC0CB00B362C2F08BB002E08BA002D0878
:10188400B9002C08B8000130BC070318BD0A0030A9
:10189400BD073D08803AFF0080307F02031D542CB1
:1018A400FF303C02031C572C582C632C7F308312CE
:1018B4000313BB008030BA000030B9000030B80018
:1018C400942C831203133D08803AFF0080307F027A
:1018D400031D6E2C01303C020318712C722C7E2CDB
:1018E400003083120313BB000030BA000030B9008B
:1018F4000030B800B101942C831203133C08B700E4
:10190400FF30B805FF30B9057F30BA050030BB059C
:10191400371C8D2C8E2C8F2CBA173708AC00031073
:101924002C0CBB003108AC002C08BB043B08A700FE
:101934003A08A6003908A5003808A4000800831254
:101944000313D000D01FA72CA82C552ED009D00AE1
:101954005008803A123E031CB02CB12C992D0A3049
:10196400F7000030F8005008F200F301F21BF30313
:101974006430F0000030F1000A168A11DC210A12EA
:101984008A157108FA007008F9000A168A1158239A
:101994000A128A15770883120313C2000130031058
:1019A400C20DFF3E031DD12C0310420D593E84008D
:1019B4000A168A110A200A128A15C3000A168A1105
:1019C4000A200A128A15C4000A168A110A200A1269
:1019D4008A15C5000A168A110A200A128A15C60039
:1019E4004608A7004508A6004408A5004308A4002B
:1019F4006430F7000030F8005008F900FA01F91BD0
:101A0400FA030A168A1158230A128A1577088312D0
:101A14000313C70001300310C70DFF3E031D0D2D36
:101A24000310470D7D3E84000A168A110A200A120B
:101A34008A15C8000A168A110A200A128A15C900D2
:101A44000A168A110A200A128A15CA000A168A116D
:101A54000A200A128A15CB004B08AB004A08AA00D8
:101A64004908A9004808A8000A128A155C210A122C
:101A74008A15831203132708CF002608CE002508F1
:101A8400CD002408CC000A30F0000030F1005008EA
:101A9400F200F301F21BF3030A168A11DC210A1285
:101AA4008A15700883120313C20001300310C20D9B
:101AB400FF3E031D582D0310420D353E84000A16C7
:101AC4008A110A200A128A15C3000A168A110A20EA
:101AD4000A128A15C4000A168A110A200A128A15E3
:101AE400C5000A168A110A200A128A15C600460879
:101AF400A7004508A6004408A5004308A4004F0811
:101B0400AB004E08AA004D08A9004C08A8000A1210
:101B14008A155C210A128A15831203132708C1004F
:101B24002608C0002508BF002408BE00FF2F500867
:101B3400803A753E031C9F2DA02D282E0A30F000FC
:101B44000030F1005008F200F301F21BF3030A160F
:101B54008A11DC210A128A15700883120313C20049
:101B640001300310C20DFF3E031DB32D0310420DBF
:101B7400353E84000A168A110A200A128A15C30007
:101B84000A168A110A200A128A15C4000A168A1132
:101B94000A200A128A15C5000A168A110A200A1296
:101BA4008A15C6004608A7004508A6004408A500F3
:101BB4004308A4000A30F7000030F8005008F90088
:101BC400FA01F91BFA030A168A1158230A128A1514
:101BD400770883120313C70001300310C70DFF3EBB
:101BE400031DEF2D0310470D593E84000A168A1178
:101BF4000A200A128A15C8000A168A110A200A1233
:101C04008A15C9000A168A110A200A128A15CA00FE
:101C14000A168A110A200A128A15CB004B08AB0057
:101C24004A08AA004908A9004808A8000A128A1507
:101C34005C210A128A15831203132708C10026089F
:101C4400C0002508BF002408BE00FF2F5008C200B2
:101C540001300310C20DFF3E031D2B2E0310420D55
:101C6400353E84000A168A110A200A128A15C30016
:101C74000A168A110A200A128A15C4000A168A1141
:101C84000A200A128A15C5000A168A110A200A12A5
:101C94008A15C6004608C1004508C0004408BF00B4
:101CA4004308BE00FF2F5008803A123E031C5B2EEF
:101CB4005C2E442F0A30F7000030F8005008F20080
:101CC400F301F21BF3036430F0000030F1000A1654
:101CD4008A11DC210A128A157108FA007008F900C9
:101CE4000A168A1158230A128A15770883120313D5
:101CF400C20001300310C20DFF3E031D7C2E0310F1
:101D0400420D253E84000A168A110A200A128A15F9
:101D1400C3000A168A110A200A128A15C4000A1678
:101D24008A110A200A128A15C5000A168A110A2085
:101D34000A128A15C6004608A7004508A6004408EA
:101D4400A5004308A4006430F7000030F8005008F0
:101D5400F900FA01F91BFA030A168A1158230A1228
:101D64008A15770883120313C70001300310C70DC7
:101D7400FF3E031DB82E0310470D493E84000A168A
:101D84008A110A200A128A15C8000A168A110A2022
:101D94000A128A15C9000A168A110A200A128A151B
:101DA400CA000A168A110A200A128A15CB004B08A7
:101DB400AB004A08AA004908A9004808A8000A126A
:101DC4008A155C210A128A15831203132708CF008F
:101DD4002608CE002508CD002408CC000A30F000E7
:101DE4000030F1005008F200F301F21BF3030A166D
:101DF4008A11DC210A128A15700883120313C200A7
:101E040001300310C20DFF3E031D032F0310420DCA
:101E1400013E84000A168A110A200A128A15C30098
:101E24000A168A110A200A128A15C4000A168A118F
:101E34000A200A128A15C5000A168A110A200A12F3
:101E44008A15C6004608A7004508A6004408A50050
:101E54004308A4004F08AB004E08AA004D08A9008F
:101E64004C08A8000A128A155C210A128A158312EA
:101E740003132708C1002608C0002508BF00240852
:101E8400BE00FF2F5008803A753E031C4A2F4B2F8B
:101E9400D32F0A30F0000030F1005008F200F301B3
:101EA400F21BF3030A168A11DC210A128A15700840
:101EB40083120313C20001300310C20DFF3E031D41
:101EC4005E2F0310420D013E84000A168A110A2077
:101ED4000A128A15C3000A168A110A200A128A15E0
:101EE400C4000A168A110A200A128A15C5000A16A5
:101EF4008A110A200A128A15C6004608A700450856
:101F0400A6004408A5004308A4000A30F7000030E6
:101F1400F8005008F900FA01F91BFA030A168A11AD
:101F240058230A128A15770883120313C700013055
:101F34000310C70DFF3E031D9A2F0310470D253EC6
:101F440084000A168A110A200A128A15C8000A1681
:101F54008A110A200A128A15C9000A168A110A204F
:101F64000A128A15CA000A168A110A200A128A1548
:101F7400CB004B08AB004A08AA004908A90048084E
:101F8400A8000A128A155C210A128A158312031307
:101F94002708C1002608C0002508BF002408BE0089
:101FA400FF2F5008C20001300310C20DFF3E031D75
:101FB400D62F0310420D013E84000A168A110A200E
:101FC4000A128A15C3000A168A110A200A128A15EF
:101FD400C4000A168A110A200A128A15C5000A16B4
:101FE4008A110A200A128A15C6004608C10045084B
:101FF400C0004408BF004308BE000800FF1B0A28B5
:1020040083137F1883170008840A0319FF0A080042
:1020140010308A000408840A820700340034003433
:1020240080343F34003400342034413400340034EC
:10203400C8344234003400347A34443400344034F4
:102044001C34463400345034C3344734003424340C
:10205400743449348034963418344B342034BC34CA
:10206400BE344C3428346B346E344E34F934023478
:1020740015345034EC347834AD346034CA34F2342A
:10208400493471340034003480343F34CD34CC349A
:10209400CC343D340A34D73423343C346F341234D2
:1020A40083343A341734B734D1343834AC34C53487
:1020B40027343734BD343734863435349534BF341B
:1020C400D63433347734CC342B3432345F347034F4
:1020D40089343034FF34E634DB342E340834E534C8
:1020E4003C341E3460344234A2340D3401340034A0
:1020F400003400340A3400340034003464340034CE
:1021040000340034E8340334003400341034273409
:1021140000340034A0348634013400344034423472
:102124000F34003480349634983400340034E1346D
:10213400F53405340034CA349A343B3453346934A6
:10214400633461346B346C3469346B3420343D341F
:1021540020342534663400344D34653472346834A4
:0821640061346234613400347F
:10217800700871040319C128C228F128F501F50A6D
:10218800D02801300310F00DF10DFF3E031DC628C5
:102198000130F4007408F507F11FD328D428C528A6
:1021A80071087302031DDA2870087202031CDD2807
:1021B800DE28E4287008F2027108031CF303F30216
:1021C80001300310F10CF00CFF3E031DE52801302F
:1021D800F502031DF028F128D4287308F1007208CD
:1021E800F0000800FB01FC01760877040319FD28BC
:1021F800FE283529FD01FD0A0C2901300310F60DD2
:10220800F70DFF3E031D02290130FA007A08FD0789
:10221800F71F0F291029012901300310FB0DFC0DB0
:10222800FF3E031D112977087902031D1D29760831
:102238007802031C2029212928297608F802770822
:10224800031CF903F9027B1401300310F70CF60C98
:10225800FF3E031D29290130FD02031D34293529BC
:1022680010297C08F7007B08F6000800003070058C
:10227800F80000307105F90080307205FA007F30EF
:102288007305FB007B087A0479047804031D4D2943
:102298004E2956290030F3000030F2000030F100DA
:1022A8000030F00000307405F80000307505F900C2
:1022B80080307605FA007F307705FB007B087A04CA
:1022C80079047804031D69296A2972290030F70006
:1022D8000030F6000030F5000030F400770873068F
:1022E800031D802976087206031D8029750871066A
:1022F800031D8029740870060319832984298629F7
:102308000310872903140800730872047104700409
:1023180003198F299029D329F901F90AA029013035
:10232800F8000310F00DF10DF20DF30DF80B9529DF
:102338000130F8007808F907F31FA329A429932985
:1023480073087702031DB22972087602031DB229A9
:1023580071087502031DB22970087402031CB5299F
:10236800B629C4297008F4027108031C710FF5021C
:102378007208031C720FF6027308031C730FF7022E
:1023880001300310F30CF20CF10CF00CFF3E031DAE
:10239800C5290130F902031DD229D329A4297708B8
:1023A800F3007608F2007508F1007408F0000800E0
:1023B800F601F31FE029E129E829F209F309F20AF5
:1023C8000319F30AF601F60AF11FEB29EC29F129A2
:1023D800F009F109F00A0319F10A700871040319E8
:1023E800F629F729262AF501F50A052A01300310EE
:1023F800F00DF10DFF3E031DFB290130F4007408B8
:10240800F507F11F082A092AFA2971087302031D22
:102418000F2A70087202031C122A132A192A70083C
:10242800F2027108031CF303F30201300310F10CEC
:10243800F00CFF3E031D1A2A0130F502031D252A60
:10244800262A092A760803192A2A2B2A302AF20969
:10245800F309F20A0319F30A7308F1007208F0008D
:10246800080000300A168A15F7260A168A11343031
:10247800F500F130F400F40B3F2AF50B3F2A442A0B
:1024880003300A168A15DD260A168A110D30F50062
:10249800FB30F400F40B4E2AF50B4E2A532A033076
:1024A8000A168A15DD260A168A111D30F5009130A4
:1024B800F400F40B5D2AF50B5D2A03300A168A1521
:1024C800DD260A168A1102300A168A15DD260A1632
:1024D8008A1102300A168A15DD260A168A11083072
:1024E8000A168A15DD260A168A1100300A168A1578
:1024F800DD260A168A110C300A168A15DD260A16F8
:102508008A1100300A168A15DD260A168A11063045
:102518000A168A15DD260A168A110800831603137F
:102528008801831203138801413083160313DD00E9
:10253800C430DC000030DB000030DA000A168A11F3
:1025480035220A168A110A168A15D0260A168A1101
:10255800F401F40A01300A128A1109200A168A11B4
:102568009F30F5008030F6000A168A15BE270A1635
:102578008A11913083160313A0005D08A4005C083B
:10258800A3005B08A2005A08A100C6300A128A11EB
:102598005A220A168A11F401F40A02300A128A1120
:1025A80009200A168A11C630F5000030F6000A160E
:1025B8008A15BE270A168A110B3083160313C50025
:1025C8002630C4005D30C300C30BE82AC40BE82AD8
:1025D800C50BE82AAC2A0A128A1100280030FC0030
:1025E8000030FB000030FA000030F9007308720474
:1025F800710470040319012B022B4F2BFD01FD0AF6
:10260800122B0130F8000310F00DF10DF20DF30D4F
:10261800F80B072B0130F8007808FD07F31F152B7E
:10262800162B052B0130F8000310F90DFA0DFB0DE0
:10263800FC0DF80B182B73087702031D2D2B72085D
:102648007602031D2D2B71087502031D2D2B7008B2
:102658007402031C302B312B402B7008F4027108D4
:10266800031C710FF5027208031C720FF60273083F
:10267800031C730FF702791401300310F30CF20CEA
:10268800F10CF00CFF3E031D412B0130FD02031D30
:102698004E2B4F2B162B7C08F3007B08F2007A0890
:1026A800F1007908F000080083120313A101F81F54
:1026B8005E2B5F2B662BF709F809F70A0319F80A4E
:1026C800A101A10AFA1F692B6A2B732BF909FA09D0
:1026D800F90A0319FA0A0130FB007B08A106A201D6
:1026E800A3017708780403197A2B7B2BB22BA0015E
:1026F800A00A892B01300310F70DF80DFF3E031DCA
:102708007F2B0130FB007B08A007F81F8C2B8D2B3B
:102718007E2B01300310A20DA30DFF3E031D8E2B4F
:1027280078087A02031D9A2B77087902031C9D2BDF
:102738009E2BA52B7708F9027808031CFA03FA02E6
:10274800221401300310F80CF70CFF3E031DA62BD2
:102758000130A002031DB12BB22B8D2B21080319C8
:10276800B62BB72BBC2BA209A309A20A0319A30AEB
:102778002308F8002208F700080003108312031347
:10278800530D540DDA005A08031DCB2BCC2BD52B37
:102798000030D4000030D3000030D2000030D10027
:1027A800382C5108D5005208D6005308D7005408D1
:1027B800D8001F300310D80CD70CD60CD50CFF3E10
:1027C800031DDE2B5508D900D317FF30D105FF3084
:1027D800D205FF30D3050030D4059630DA02DA1F6F
:1027E800F62BF72B112C5A08803A973E0318FD2B2D
:1027F800FE2BFF2BCC2B01300310D40CD30CD20CA6
:10280800D10CFF3E031D002C0130D5005508DA0716
:10281800031D0F2C102CFF2B282C20305A02031CD0
:10282800162C172C232CCC2B0130D5000310D10DDE
:10283800D20DD30DD40DD50B1A2C0130DA025A085B
:10284800031D272C282C182C590803192C2C2D2C47
:10285800382CD109D209D309D409D10A0319D20ACB
:102868000319D30A0319D40A08007008F80071087C
:10287800F9007208FA000310790D7A0D8312031318
:10288800A5002508031D492C4A2C532C0030F300C1
:102898000030F2000030F1000030F000EF2C740836
:1028A800F8007508F9007608FA000310790D7A0D1A
:1028B800A4002408031D612C622C632C4A2CF117F8
:1028C800FF30F005FF30F1050030F205F517FF3055
:1028D800F405FF30F5050030F6050030A3000030A0
:1028E800A2000030A1000030A0007F30A50298307F
:1028F8002407F8007808A5021830A4000130F80071
:102908000310A00DA10DA20DA30DF80B842C7608C1
:102918007202031D952C75087102031D952C74080D
:102928007002031C982C992CA42C7408F0027508CA
:10293800031C750FF1027608031C760AF2022014B4
:1029480001300310F00DF10DF20DFF3E031DA52C13
:102958000130A402031DB12CB22C822CA51FB52C6A
:10296800B62CD02C2508803A973E0318BC2CBD2CD9
:10297800BE2C4A2C01300310A30CA20CA10CA00CF5
:10298800FF3E031DBF2C0130F8007808A507031D82
:10299800CE2CCF2CBE2CE72C18302502031CD52CAE
:1029A800D62CE22C4A2C0130F8000310A00DA10D02
:1029B800A20DA30DF80BD92C0130A5022508031D83
:1029C800E62CE72CD72C2308F3002208F200210874
:1029D800F1002008F0000800F80078080319F52C29
:1029E800F62C0A2DF31FF92CFA2C0A2D7009FA007F
:1029F8007109FB007209FC007309FD00FA0A03194A
:102A0800FB0A0319FC0A0319FD0A122D7308FD00BD
:102A18007208FC007108FB007008FA007308720461
:102A280071047004031D192D1A2D232D0030F30095
:102A38000030F2000030F1000030F000A72D963091
:102A4800F900332D0130F4007408F9070130031040
:102A5800FD0CFC0CFB0CFA0CFF3E031D2B2DFE306D
:102A68007D05031D382D392D262D552D0130F400F7
:102A78007408F9070130FA07003003180130FB0722
:102A8800003003180130FC07003003180130FD073F
:102A980001300310FD0CFC0CFB0CFA0CFF3E031D6F
:102AA8004D2DFF307D05031D5A2D5B2D3A2D672DC9
:102AB8000130F9020130F4000310FA0DFB0DFC0D92
:102AC800FD0DF40B602DFC1B6A2D6B2D712D023052
:102AD80079020318702D712D5C2D7918742D752DC0
:102AE8007D2DFF30FA05FF30FB057F30FC05FF30F8
:102AF800FD050310F90C7908F400F501F601F7015A
:102B080018300310F40DF50DF60DF70DFF3E031DFB
:102B1800852D7408FA047508FB047608FC04770808
:102B2800FD0478080319992D9A2D9F2DF31F9D2DCB
:102B38009E2D9F2DFD177D08F3007C08F2007B0871
:102B4800F1007A08F0000800831203135508803951
:102B5800E2005508DA005A07E400D41FB42DB52D59
:102B6800B62D641464080319BA2DBB2DCB2D640A45
:102B7800031DBF2DC02DC82D0030D5000030D40056
:102B88000030D3000030D200D417D501D32D003047
:102B9800D5000030D4000030D3000030D2005908EE
:102BA8008039E300630862060319DB2DDC2DDD2D77
:102BB80062175908DA005A07E300D81FE42DE52DFB
:102BC800E62D631463080319EA2DEB2DFB2D630A28
:102BD800031DEF2DF02DF82D0030D9000030D8005E
:102BE8000030D7000030D600D817D901032E0030A6
:102BF800D9000030D8000030D7000030D600640873
:102C080063020318082E092E2F2E621F0C2E0D2E7C
:102C1800112E8030DA005A08E2066408E5006308DD
:102C2800E4006508E3005208E5005608D20065088C
:102C3800D6005308E5005708D3006508D7005408A4
:102C4800E5005808D4006508D8005508E50059087B
:102C5800D5006508D900E5016308DA00DB015B08E7
:102C6800DD0064085A02DC00031CDD035D08803ABD
:102C7800FF0080307F02031D432E1A305C02031CC4
:102C8800462E472E7E2E83120313550854045304F0
:102C98005204031D502E522E0130532E0030E500F1
:102CA8000030D5000030D4000030D3000030D2000E
:102CB8006308E400862E651C622E632E6A2E650862
:102CC800DA0003105A0C0138E5006C2E0310E50CED
:102CD800521C6F2E702E712EE5170130DA00550D3B
:102CE800D50CD40CD30CD20CDA0B732E0130DA00CD
:102CF8005A08E4078312031363086402031C852E31
:102D0800862E5F2E621B892E8A2ED32E6408031D01
:102D18008E2E8F2E982E0030D5000030D400003033
:102D2800D3000030D200FF2F5608D20757080311EE
:102D38000318013E0319A12ED307580803110318DD
:102D4800013E0319A82ED407590803110318013EA0
:102D58000319AF2ED507551CB22EB32E872F651C2D
:102D6800B62EB72EBE2E6508DA0003105A0C0138AD
:102D7800E500C02E0310E50C521CC32EC42EC52E30
:102D8800E5170130DA00550DD50CD40CD30CD20C54
:102D9800DA0BC72E0130DA005A08E407872F5508E6
:102DA800803AFF005908803A7F02031DE52E580833
:102DB8005402031DE52E57085302031DE52E56083D
:102DC80052020318E82EE92E412FFF30DA00FF30B7
:102DD800DB00FF30DC00FF30DD005608DE0057085E
:102DE800DF005808E0005908E1005208DE025308E5
:102DF800031C530F002F012FDF025408031C540F2C
:102E0800062F072FE0025508031C550F0C2F0D2F16
:102E1800E1025E08DA075F0803185F0F142F152F09
:102E2800DB0760080318600F1A2F1B2FDC076108E7
:102E38000318610ADD075D08D5005C08D4005B084B
:102E4800D3005A08D2008030DA005A08E206E509B1
:102E5800E50A6508031D312F322F4F2F0130D207A5
:102E6800003003180130D307003003180130D407AD
:102E7800003003180130D5074F2F5608D2025708E3
:102E8800031C570FD3025808031C580FD4025908C3
:102E9800031C590FD5025508540453045204031D4A
:102EA800562F572F832F6508031D5B2F5C2F832F09
:102EB8000030D5000030D4000030D3000030D200FC
:102EC800FF2F0130DA000310D20DD30DD40DD50D2C
:102ED800DA0B672FE51F712F722F732F5214651CA1
:102EE800762F772F7A2F0314E50D7C2F0310E50D2D
:102EF80064080319802F812F832F0130E402D41F27
:102F0800862F872F652FE301E51F8B2F8C2F9A2F94
:102F180065087F390319912F922F952FE301E30A52
:102F28009A2F521C982F992F9A2F922F63080319C2
:102F38009E2F9F2FD32F0130D20700300318013066
:102F4800D307003003180130D407003003180130CC
:102F5800D507551CB02FB12FD32F5208DA005308CC
:102F6800DB005408DC005508DD000130DE005D0D93
:102F7800DD0CDC0CDB0CDA0CDE0BBB2F5D08D5009E
:102F88005C08D4005B08D3005A08D200640A03190D
:102F9800CE2FCF2FD32F0130DA005A08E407640A66
:102FA8000319D72FD82FDD2F6408031DDC2FDD2F41
:102FB800EB2F0030D5000030D4000030D3000030B3
:102FC800D2006408031DE92FEA2FEB2FE201641CED
:102FD800EE2FEF2FF12FD417F52F7F30DA005A0894
:102FE800D4056408DA0003105A0CD500E21FFD2F3F
:082FF800FE2FFF2FD517080082
:103D8A0073087204710470040319CC2ECD2ECF2E41
:103D9A008030F306080000300A168A15DD260A1656
:103DAA008A1501300A168A15DD260A168A150800B0
:103DBA00F30083120313081173080A168A15F726EB
:103DCA000A168A158312031388150B30F200623023
:103DDA00F100F10BEE2EF20BEE2E0000831203130C
:103DEA0088110800F000701CFB2EFC2E002F831295
:103DFA0003130816032F831203130812F01C062F4D
:103E0A00072F092F88160A2F8812701D0D2F0E2FC3
:103E1A00102F0817112F0813F01D142F152F172F05
:103E2A008817182F88130800803083120313E906B5
:103E3A006D08D5006C08D4006B08D3006A08D2005C
:103E4A006908D9006808D8006708D7006608D6004C
:103E5A000A168A11A8250A168A1583120313550809
:103E6A00E9005408E8005308E7005208E600080091
:103E7A00F401F501701C422F432F492F7208F407F1
:103E8A000318F50A7308F50701300310F20DF30D54
:103E9A00FF3E031D4A2F01300310F10CF00CFF3EC8
:103EAA00031D512F70087104031D5C2F5D2F3F2FD6
:103EBA007508F1007408F0000800F800F401F50133
:103ECA007008F200F3017208F6007308F700781C14
:103EDA006F2F702F762F7608F4070318F50A7708E4
:103EEA00F50701300310F60DF70DFF3E031D772F7E
:103EFA000310F80C7808031D832F842F6C2F750884
:103F0A00F1007408F0000800F40074080F39F20098
:103F1A007408F039F3008312031308157308F100CB
:103F2A0004300310F10CFF3E031D962F71080A1688
:103F3A008A15F7260A168A158312031388151A306A
:103F4A00F100F10BA62F00008312031388117208E7
:103F5A000A168A15F7260A168A1583120313881574
:103F6A001A30F100F10BB72F0000831203138811E6
:103F7A000800FA01FB01E32F7A087507F8007608B2
:103F8A00F7000318F70AFA1FCB2FF7037708F9008F
:103F9A00790883120313FF00780884000A168A112D
:103FAA0000200A168A150A168A1589270A168A15FA
:103FBA000130FA070318FB0A0030FB077A08750775
:103FCA00F8007608F7000318F70AFA1FED2FF7032F
:103FDA007708F900790883120313FF007808840030
:103FEA000A168A1100200A168A15003A031DFE2FA6
:0E3FFA00FF2FC12F0800FF3FFF3FFF3FFF3F9B
:02400E00FF3F72
:00000001FF
