:100000000A128A11FC2F00308A000408840A820731
:1000100000343F3406345B344F3466346D347D3401
:0600200007347F346F3449
:100F5A00F101013083160313860087013F308312A3
:100F6A0003138700061CBA2FBB2FD32F0130F000C2
:100F7A007008F1070A307106031DC42FC52FC62F4A
:100F8A00F1017108013E84000A128A1103200A1233
:100F9A008A1187000618D22FD32FCF2F861CD62F5F
:100FAA00D72FE72F0130F1020930F1000A3084000F
:100FBA000A128A1103200A128A1187008618E62F5C
:100FCA00E72FE32F061DEA2FEB2FB72FF101013090
:100FDA0084000A128A1103200A128A11870006194C
:100FEA00F72FF82FF42FB72F0A128A11002883013E
:060FFA000A128A11AD2F5E
:08400000FF3FFF3FFF3FFF3FC0
:02400E00FD3F74
:00000001FF
