:060000000A128A11FC2F18
:100F4800FF3083160313850086018701831203137C
:100F58008601870191309F008030831603139F001C
:100F680000300A128A11C8270A128A117108F6007D
:100F78007008F50075088312031386007608870049
:100F8800B42F0A128A110028F40008307402031CD6
:100F9800CE2FCF2FD22FF001F101FB2FC530F20059
:100FA8007208831203139F057408F20002300310BD
:100FB800F20DFF3E031DDB2F0310720DF3007308C3
:100FC8009F040630F3003030F200F20BE92FF30BE8
:100FD800E92F0000831203131F151F19F42FF52F93
:100FE800F12F1E08F100831603131E08F0000800F5
:080FF80083010A128A11A42FE3
:08400000FF3FFF3FFF3FFF3FC0
:02400E00FE3F73
:00000001FF
