:100000000A128A11FC2F00308A000408840A820731
:1000100000344D3465347234683461346234613490
:100020002034443475346E34793461342E340034E1
:100C480000300A128A114B260A128A1101300A1240
:100C58008A114B260A128A11080001300A128A11D9
:100C68004B260A128A1108300A128A114B260A12D8
:100C78008A11080001300A128A114B260A128A11B9
:100C88000C300A128A114B260A128A110800F30046
:100C980083120313081173080A128A1165260A12AF
:100CA8008A118312031388150B30F2006230F100A9
:100CB800F10B5C2EF20B5C2E0000831203138811DB
:100CC8000800F000701C692E6A2E6E2E8312031322
:100CD8000816712E831203130812F01C742E752E39
:100CE800772E8816782E8812701D7B2E7C2E7E2EED
:100CF80008177F2E0813F01D822E832E852E881745
:100D0800862E88130800F700F501F6019E2E750857
:100D1800770784000A128A1103200A128A110A121C
:100D28008A11AC260A128A110130F5070318F60A4F
:100D38000030F6077508770784000A128A11032025
:100D48000A128A11003A031DAA2EAB2E8B2E080018
:100D5800F40074080F39F2007408F039F3008312B4
:100D6800031308157308F10004300310F10CFF3E5B
:100D7800031DB92E71080A128A1165260A128A11F2
:100D88008312031388151A30F100F10BC92E0000E5
:100D980083120313881172080A128A1165260A122F
:100DA8008A118312031388151A30F100F10BDA2E19
:100DB80000008312031388110800F6007603031D50
:100DC800E62EE72E042F74087F3EF9007908F50017
:100DD80004300310F50CFF3E031DED2E7508F700D7
:100DE80079080F39F80077080A128A114B260A1277
:100DF8008A1178080A128A114B260A128A11262F9C
:100E080002307606031D092F0A2F262F7408BF3ECD
:100E1800F9007908F50004300310F50CFF3E031DB6
:100E2800102F7508F70079080F39F80077080A12AB
:100E38008A114B260A128A1178080A128A114B263F
:100E48000A128A11080000300A128A1165260A124D
:100E58008A113430F500F130F400F40B312FF50B22
:100E6800312F362F03300A128A114B260A128A11A3
:100E78000D30F500FB30F400F40B402FF50B402F3C
:100E8800452F03300A128A114B260A128A111D3087
:100E9800F5009130F400F40B4F2FF50B4F2F033072
:100EA8000A128A114B260A128A1102300A128A1172
:100EB8004B260A128A1102300A128A114B260A128C
:100EC8008A1108300A128A114B260A128A11003038
:100ED8000A128A114B260A128A110C300A128A1138
:100EE8004B260A128A1100300A128A114B260A125E
:100EF8008A1106300A128A114B260A128A11080032
:100F08008316031388018312031388010A128A11B6
:100F180027270A128A11F401F40A01300A128A11E9
:100F2800E1260A128A1101300A128A1187260A124A
:100F38008A1183120313A001A1010330FC008A3037
:100F4800FB005530FA00FA0BA72FFB0BA72FFC0B61
:100F5800A72FAE2F0A128A1131260A128A110130E0
:100F680083120313A0070318A10A0030A107210860
:100F7800803AFF0080307F02031DC42F0F3020020B
:100F8800031CC72FC82FA12F83120313A201A3018B
:100F98000330FC008A30FB005530FA00FA0BD22FE0
:100FA800FB0BD22FFC0BD22FD92F0A128A113E2607
:100FB8000A128A11013083120313A2070318A30A25
:100FC8000030A3072308803AFF0080307F02031D0A
:100FD800EF2F0F302202031CF22FF32FCC2F0A120F
:100FE8008A1124260A128A118F2F0A128A110028C0
:080FF80083010A128A11842F03
:08400000FF3FFF3FFF3FFF3FC0
:02400E007A3FF7
:00000001FF
