:100000000A128A11EB2FFF1B0D2883137F18831709
:100010000008840A0319FF0A080000308A00040857
:10002000840A8207003420342034203420342034E1
:100030002034203420342034203420342034203420
:100040002034203420342034203420342034203410
:1000500020342034203420342034203400344834F8
:100060006934673468342034543465346D34703402
:1000700065347234613474347534723465340034E8
:100080004C346F3477342034543465346D347034E8
:1000900065347234613474347534723465340034C8
:1000A000203420344534723472346F347234213445
:0600B0002034203400346E
:1005E4003034303430342E343034303430343034E9
:1005F4002034433400347E088A007F0882000A12C3
:100604008A11FD220A128A118000840A04087D06D8
:1006140003190034FF0A0319FE0A012BF300F40145
:100624007308F200740A182B0310F20CFF3E031D2A
:10063400162B72080A128A112C230A128A1101300D
:10064400F2007208F40708307402031C2A2B2B2BC7
:10065400122B0800F1008312031386108316031370
:100664008610342B352B7118382B3C2B8312031333
:1006740086143F2B8312031386103530F000F00BE1
:10068400412B831603138614472B482B0800F301D0
:10069400F4010A128A1168230A128A11F100740AF9
:1006A400552B0310F10DFF3E031D532B7108F2006F
:1006B4007208F3040130F1007108F4070830740281
:1006C400031C652B662B4B2B730808008312031342
:1006D40086108316031386106F2B702B8316031357
:1006E40086140330F000F00B752B831203133410BF
:1006F400861C7D2B34144230F000F00B7F2B00005D
:10070400003083120313341801300800F401F5019A
:10071400701C8D2B8E2B942B7208F4070318F50A8A
:100724007308F50701300310F20DF30DFF3E031DAE
:10073400952B01300310F10CF00CFF3E031D9C2B94
:1007440070087104031DA72BA82B8A2B7508F100D0
:100754007408F00008008312031386108316031331
:100764008610C730F000B62BF00BB52BB92BBA2B83
:100774008316031386144230F000F00BBF2B0000E5
:10078400831203138618C72BC82BD12B9F30F0007C
:10079400CB2BF00BCA2BCE2BCF2B0130D22B00301E
:1007A4000800F40083120313B4107408F200043038
:1007B4000310F20CFF3E031DDA2B72080A128A1191
:1007C400FF240A128A1174080A128A11FF240A12D9
:1007D4008A1174030319EF2BF02BF62B02307406E5
:1007E400031DF52BF62BFF2B0630F3003030F200FF
:1007F400F20BFA2BF30BFA2B00000800F800222C62
:100804007808BF3E0A128A11D3230A128A11352CA2
:100814007808933E0A128A11D3230A128A11352CBE
:100824007808D33E0A128A11D3230A128A11352C6E
:1008340078087F3E0A128A11D3230A128A11352CB2
:100844007508F600F7017708003A03192A2C1A2CC8
:100854007608023A0319022C013A03190A2C073AC2
:100864000319122C1A2C0800831203132B082C04CE
:1008740003193D2C3E2C6D2CB001B00A4C2C0130D8
:100884000310AB0DAC0DFF3E031D422C0130AF0035
:100894002F08B007AC1F4F2C502C412C2C082E02D3
:1008A400031D562C2B082D02031C592C5A2C602C8A
:1008B4002B08AD022C08031CAE03AE02013003105A
:1008C400AC0CAB0CFF3E031D612C0130B002031DC8
:1008D4006C2C6D2C502C2E08AC002D08AB0008009D
:1008E400FB01FC01760877040319792C7A2CB12CCE
:1008F400FD01FD0A882C01300310F60DF70DFF3EB3
:10090400031D7E2C0130FA007A08FD07F71F8B2C9B
:100914008C2C7D2C01300310FB0DFC0DFF3E031DC0
:100924008D2C77087902031D992C76087802031C14
:100934009C2C9D2CA42C7608F8027708031CF90340
:10094400F9027B1401300310F70CF60CFF3E031D73
:10095400A52C0130FD02031DB02CB12C8C2C7C087D
:10096400F7007B08F6000800F50183120313B414A2
:10097400EB2C75087207840073080318730AFF00D0
:100984000A128A1103200A128A11F4000430031097
:10099400F40CFF3E031DC92C74080A128A11FF24AB
:1009A4000A128A1175087207840073080318730AFF
:1009B40083120313FF000A128A1103200A128A11F8
:1009C4000A128A11FF240A128A110130F4007408F1
:1009D400F50775087207840073080318730A8312F5
:1009E4000313FF000A128A1103200A128A11003A23
:1009F400031DFD2CFE2CBB2C0800F10083120313F5
:100A0400B418052D092D8312031308150C2D831218
:100A14000313081171180F2D132D831203130816D5
:100A2400162D8312031308127108F000013003100D
:100A3400F00CFF3E031D192D7018212D252D831256
:100A440003138816282D8312031388127108F000EB
:100A540002300310F00CFF3E031D2B2D7018332DB4
:100A6400372D8312031308173A2D83120313081327
:100A74007108F00003300310F00CFF3E031D3D2D00
:100A84007018452D492D8312031388174C2D83129A
:100A94000313881388114E2D831203138815522DC6
:100AA4008312031388114230F000F00B572D00001D
:100AB4000800F9000A128A11AD230A128A11003AB9
:100AC400031D652D662D692DF501F601BB2DCC3076
:100AD4000A128A1110230A128A1144300A128A1146
:100AE40010230A128A110A128A1149230A128A113E
:100AF400003A03197E2D7F2D752D0A128A11AD231C
:100B04000A128A11003A031D882D892D8A2D662D1B
:100B1400CC300A128A1110230A128A11BE300A122A
:100B24008A1110230A128A110A128A1149230A12FD
:100B34008A11F700F801790884007708831380008C
:100B4400840A780880000A128A1149230A128A1139
:100B5400F700F8017708F800F701790884007708AE
:100B640083138004840A780880040130F50000307F
:100B7400F600080083120313B41008118811081238
:100B84008812081388138316031308118811081296
:100B94008812081388136830F600E430F500F50B6A
:100BA400D12DF60BD12D000003300A128A11D32364
:100BB4000A128A110D30F600FB30F500F50BE02D1A
:100BC400F60BE02DE52D03300A128A11D3230A1205
:100BD4008A110D30F600FB30F500F50BEF2DF60B06
:100BE400EF2DF42D03300A128A11D3230A128A112D
:100BF4000D30F600FB30F500F50BFE2DF60BFE2D47
:100C0400032E02300A128A11D3230A128A110D30DC
:100C1400F600FB30F500F50B0D2EF60B0D2E122E03
:100C240028300A128A11D3230A128A118230F6005C
:100C3400DD30F500F50B1C2EF60B1C2E212E0C308E
:100C44000A128A11D3230A128A118230F600DD3087
:100C5400F500F50B2B2EF60B2B2E302E01300A123D
:100C64008A11D3230A128A118230F600DD30F5008E
:100C7400F50B3A2EF60B3A2E3F2E06300A128A1145
:100C8400D3230A128A118230F600DD30F500F50B09
:100C9400492EF60B492E4E2E08007030831603138E
:100CA4008F008316031789010B3083120313B300DB
:100CB4002630B2005D30B100B10B5E2EB20B5E2E59
:100CC400B30B5E2E0A128A11BC250A128A11DF3078
:100CD40083120313A80035300A128A115B250A1205
:100CE4008A11750876040319782E792EC82F831279
:100CF4000313B61F7E2E7F2E982E2D30A000B5092B
:100D0400B609B50A0319B60A0230F50001300A1211
:100D14008A1100240A128A112E30F2008030F30066
:100D24000A128A11B6240A128A11D32E3608B20086
:100D34003508B10004300310B20CB10CFF3E031DA2
:100D44009D2E00303202643003193102031CAB2E95
:100D5400AC2EC02E3130A0000230F50001300A1252
:100D64008A1100240A128A111D30F2008030F30027
:100D74000A128A11B6240A128A11D32E2030A00036
:100D84000230F50001300A128A1100240A128A1175
:100D94000130F2008030F3000A128A11B6240A12DC
:100DA4008A110A3083120313AB000030AC000A30FE
:100DB400F6000030F700350E0F39F800360EF03922
:100DC400F804360E0F39F9000A128A1172240A1235
:100DD4008A11770883120313AE007608AD000A1255
:100DE4008A1136240A128A11831203132B08303E07
:100DF400A1000A30AB000030AC00350E0F39AD0055
:100E0400360EF039AD04360E0F39AE000A128A11CF
:100E140036240A128A11831203132B08303EA200CF
:100E2400E830F6000330F7000F303505F0000030ED
:100E34003605F1007130F2000230F3000A128A1113
:100E440088230A128A117108F9007008F8000A123E
:100E54008A1172240A128A117608303E831203130F
:100E6400A4000A30AB000030AC006430F60000305F
:100E7400F7000F303505F00000303605F100713011
:100E8400F2000230F3000A128A1188230A128A112E
:100E94007108F9007008F8000A128A1172240A1203
:100EA4008A11770883120313AE007608AD000A1284
:100EB4008A1136240A128A11831203132B08303E36
:100EC400A5000A30AB000030AC000A30F600003058
:100ED400F7000F303505F00000303605F1007130B1
:100EE400F2000230F3000A128A1188230A128A11CE
:100EF4007108F9007008F8000A128A1172240A12A3
:100F04008A11770883120313AE007608AD000A1223
:100F14008A1136240A128A11831203132B08303ED5
:100F2400A6000A30AB000030AC000F303505F000ED
:100F340000303605F1007130F2000230F3000A127D
:100F44008A1188230A128A11710883120313AE00CE
:100F54007008AD000A128A1136240A128A1183120B
:100F640003132B08303EA700F501F50A04300A12DA
:100F74008A1100240A128A112030F2000030F30092
:100F84000A128A11B6240A128A11D92F0230F500E6
:100F940004300A128A1100240A128A113E30F20027
:100FA4008030F3000A128A11B6240A128A110B3017
:100FB40083120313B3002630B2005D30B100B10BCD
:100FC400E12FB20BE12FB30BE12F6D2E0A128A1120
:100FD400002883132B30FD000230FE00F230FF00A6
:100FE400203084000A128A1101230A128A11B501E1
:0C0FF400B601B40183010A128A114F2ECD
:08400000FF3FFF3FFF3FFF3FC0
:04400E00D42CFF3F70
:00000001FF
